{
  "_format": "hh-sol-artifact-1",
  "contractName": "Crosswords",
  "sourceName": "contracts/Crosswords.sol",
  "abi": [
    {
      "inputs": [
        {
          "internalType": "address",
          "name": "_tokenAddress",
          "type": "address"
        }
      ],
      "stateMutability": "nonpayable",
      "type": "constructor"
    },
    {
      "anonymous": false,
      "inputs": [
        {
          "indexed": false,
          "internalType": "address",
          "name": "from",
          "type": "address"
        },
        {
          "indexed": false,
          "internalType": "uint256",
          "name": "crosswordId",
          "type": "uint256"
        }
      ],
      "name": "RequestSquareReveal",
      "type": "event"
    },
    {
      "anonymous": false,
      "inputs": [
        {
          "indexed": false,
          "internalType": "address",
          "name": "from",
          "type": "address"
        },
        {
          "indexed": false,
          "internalType": "uint256",
          "name": "crosswordId",
          "type": "uint256"
        }
      ],
      "name": "RequestWordReveal",
      "type": "event"
    },
    {
      "inputs": [
        {
          "internalType": "uint256",
          "name": "_id",
          "type": "uint256"
        }
      ],
      "name": "getWinner",
      "outputs": [
        {
          "internalType": "address",
          "name": "",
          "type": "address"
        }
      ],
      "stateMutability": "view",
      "type": "function"
    },
    {
      "inputs": [
        {
          "internalType": "uint256",
          "name": "_id",
          "type": "uint256"
        }
      ],
      "name": "isChallengeOn",
      "outputs": [
        {
          "internalType": "bool",
          "name": "",
          "type": "bool"
        }
      ],
      "stateMutability": "view",
      "type": "function"
    },
    {
      "inputs": [],
      "name": "mjToken",
      "outputs": [
        {
          "internalType": "contract MindJam",
          "name": "",
          "type": "address"
        }
      ],
      "stateMutability": "view",
      "type": "function"
    },
    {
      "inputs": [
        {
          "internalType": "uint256",
          "name": "_squarePrice",
          "type": "uint256"
        },
        {
          "internalType": "uint256",
          "name": "_wordPrice",
          "type": "uint256"
        },
        {
          "internalType": "uint256",
          "name": "_challengePrize",
          "type": "uint256"
        }
      ],
      "name": "newCrossword",
      "outputs": [
        {
          "internalType": "uint256",
          "name": "",
          "type": "uint256"
        }
      ],
      "stateMutability": "nonpayable",
      "type": "function"
    },
    {
      "inputs": [],
      "name": "owner",
      "outputs": [
        {
          "internalType": "address",
          "name": "",
          "type": "address"
        }
      ],
      "stateMutability": "view",
      "type": "function"
    },
    {
      "inputs": [
        {
          "internalType": "uint256",
          "name": "_id",
          "type": "uint256"
        }
      ],
      "name": "payWinner",
      "outputs": [],
      "stateMutability": "nonpayable",
      "type": "function"
    },
    {
      "inputs": [
        {
          "internalType": "uint256",
          "name": "_id",
          "type": "uint256"
        }
      ],
      "name": "requestSquare",
      "outputs": [],
      "stateMutability": "nonpayable",
      "type": "function"
    },
    {
      "inputs": [
        {
          "internalType": "uint256",
          "name": "_id",
          "type": "uint256"
        }
      ],
      "name": "requestWord",
      "outputs": [],
      "stateMutability": "nonpayable",
      "type": "function"
    },
    {
      "inputs": [
        {
          "internalType": "uint256",
          "name": "_id",
          "type": "uint256"
        },
        {
          "internalType": "uint256",
          "name": "_time",
          "type": "uint256"
        },
        {
          "internalType": "address",
          "name": "_player",
          "type": "address"
        }
      ],
      "name": "sessionEnded",
      "outputs": [
        {
          "internalType": "bool",
          "name": "",
          "type": "bool"
        }
      ],
      "stateMutability": "nonpayable",
      "type": "function"
    },
    {
      "inputs": [
        {
          "internalType": "address",
          "name": "_to",
          "type": "address"
        }
      ],
      "name": "withdraw",
      "outputs": [],
      "stateMutability": "nonpayable",
      "type": "function"
    }
  ],
  "bytecode": "0x60806040523480156200001157600080fd5b5060405162001acc38038062001acc833981810160405281019062000037919062000132565b600160008190555033600160006101000a81548173ffffffffffffffffffffffffffffffffffffffff021916908373ffffffffffffffffffffffffffffffffffffffff16021790555080600260006101000a81548173ffffffffffffffffffffffffffffffffffffffff021916908373ffffffffffffffffffffffffffffffffffffffff1602179055505062000164565b600080fd5b600073ffffffffffffffffffffffffffffffffffffffff82169050919050565b6000620000fa82620000cd565b9050919050565b6200010c81620000ed565b81146200011857600080fd5b50565b6000815190506200012c8162000101565b92915050565b6000602082840312156200014b576200014a620000c8565b5b60006200015b848285016200011b565b91505092915050565b61195880620001746000396000f3fe608060405234801561001057600080fd5b506004361061009e5760003560e01c80637eb98d51116100665780637eb98d511461016b5780638da5cb5b14610189578063a5c0449f146101a7578063d0110ddb146101c3578063f19900cd146101df5761009e565b80634129b2c9146100a35780634809b604146100d357806351cff8d9146100ef57806371ac90051461010b57806375f505751461013b575b600080fd5b6100bd60048036038101906100b89190611075565b61020f565b6040516100ca91906110e3565b60405180910390f35b6100ed60048036038101906100e89190611075565b61025e565b005b6101096004803603810190610104919061112a565b61048c565b005b61012560048036038101906101209190611157565b6106a4565b60405161013291906111b9565b60405180910390f35b610155600480360381019061015091906111d4565b6107eb565b6040516101629190611242565b60405180910390f35b610173610a76565b60405161018091906112bc565b60405180910390f35b610191610a9c565b60405161019e91906110e3565b60405180910390f35b6101c160048036038101906101bc9190611075565b610ac2565b005b6101dd60048036038101906101d89190611075565b610dcc565b005b6101f960048036038101906101f49190611075565b610ffa565b6040516102069190611242565b60405180910390f35b600060038281548110610225576102246112d7565b5b906000526020600020906007020160030160009054906101000a900473ffffffffffffffffffffffffffffffffffffffff169050919050565b600060038281548110610274576102736112d7565b5b906000526020600020906007020160000154905080600260009054906101000a900473ffffffffffffffffffffffffffffffffffffffff1673ffffffffffffffffffffffffffffffffffffffff1663dd62ed3e33306040518363ffffffff1660e01b81526004016102e6929190611306565b602060405180830381865afa158015610303573d6000803e3d6000fd5b505050506040513d601f19601f820116820180604052508101906103279190611344565b1015610368576040517f08c379a000000000000000000000000000000000000000000000000000000000815260040161035f906113ce565b60405180910390fd5b6000600260009054906101000a900473ffffffffffffffffffffffffffffffffffffffff1673ffffffffffffffffffffffffffffffffffffffff166323b872dd3330856040518463ffffffff1660e01b81526004016103c9939291906113ee565b6020604051808303816000875af11580156103e8573d6000803e3d6000fd5b505050506040513d601f19601f8201168201806040525081019061040c9190611451565b90508061044e576040517f08c379a0000000000000000000000000000000000000000000000000000000008152600401610445906114ca565b60405180910390fd5b7f2cd3139ab10614ceef942528b3520c563a01858be774ac156953f0744cb92ff0338460405161047f9291906114ea565b60405180910390a1505050565b600160009054906101000a900473ffffffffffffffffffffffffffffffffffffffff1673ffffffffffffffffffffffffffffffffffffffff163373ffffffffffffffffffffffffffffffffffffffff161461051c576040517f08c379a00000000000000000000000000000000000000000000000000000000081526004016105139061155f565b60405180910390fd5b6000600260009054906101000a900473ffffffffffffffffffffffffffffffffffffffff1673ffffffffffffffffffffffffffffffffffffffff166370a08231306040518263ffffffff1660e01b815260040161057991906110e3565b602060405180830381865afa158015610596573d6000803e3d6000fd5b505050506040513d601f19601f820116820180604052508101906105ba9190611344565b9050600081116105ff576040517f08c379a00000000000000000000000000000000000000000000000000000000081526004016105f6906115cb565b60405180910390fd5b600260009054906101000a900473ffffffffffffffffffffffffffffffffffffffff1673ffffffffffffffffffffffffffffffffffffffff1663a9059cbb83836040518363ffffffff1660e01b815260040161065c9291906114ea565b6020604051808303816000875af115801561067b573d6000803e3d6000fd5b505050506040513d601f19601f8201168201806040525081019061069f9190611451565b505050565b60006003604051806101000160405280868152602001858152602001848152602001600073ffffffffffffffffffffffffffffffffffffffff16815260200160001515815260200142815260200160038054905081526020016000815250908060018154018082558091505060019003906000526020600020906007020160009091909190915060008201518160000155602082015181600101556040820151816002015560608201518160030160006101000a81548173ffffffffffffffffffffffffffffffffffffffff021916908373ffffffffffffffffffffffffffffffffffffffff16021790555060808201518160030160146101000a81548160ff02191690831515021790555060a0820151816004015560c0820151816005015560e08201518160060155505060016003805490506107e2919061161a565b90509392505050565b6000600160009054906101000a900473ffffffffffffffffffffffffffffffffffffffff1673ffffffffffffffffffffffffffffffffffffffff163373ffffffffffffffffffffffffffffffffffffffff161461087d576040517f08c379a00000000000000000000000000000000000000000000000000000000081526004016108749061155f565b60405180910390fd5b600083116108c0576040517f08c379a00000000000000000000000000000000000000000000000000000000081526004016108b79061169a565b60405180910390fd5b6000600385815481106108d6576108d56112d7565b5b9060005260206000209060070201604051806101000160405290816000820154815260200160018201548152602001600282015481526020016003820160009054906101000a900473ffffffffffffffffffffffffffffffffffffffff1673ffffffffffffffffffffffffffffffffffffffff1673ffffffffffffffffffffffffffffffffffffffff1681526020016003820160149054906101000a900460ff16151515158152602001600482015481526020016005820154815260200160068201548152505090506109a885610ffa565b6109b6576000915050610a6f565b60008160e0015114806109cc57508060e0015184105b15610a695783600386815481106109e6576109e56112d7565b5b9060005260206000209060070201600601819055508260038681548110610a1057610a0f6112d7565b5b906000526020600020906007020160030160006101000a81548173ffffffffffffffffffffffffffffffffffffffff021916908373ffffffffffffffffffffffffffffffffffffffff1602179055506001915050610a6f565b60009150505b9392505050565b600260009054906101000a900473ffffffffffffffffffffffffffffffffffffffff1681565b600160009054906101000a900473ffffffffffffffffffffffffffffffffffffffff1681565b60026000541415610b08576040517f08c379a0000000000000000000000000000000000000000000000000000000008152600401610aff90611706565b60405180910390fd5b6002600081905550600060038281548110610b2657610b256112d7565b5b9060005260206000209060070201604051806101000160405290816000820154815260200160018201548152602001600282015481526020016003820160009054906101000a900473ffffffffffffffffffffffffffffffffffffffff1673ffffffffffffffffffffffffffffffffffffffff1673ffffffffffffffffffffffffffffffffffffffff1681526020016003820160149054906101000a900460ff1615151515815260200160048201548152602001600582015481526020016006820154815250509050806060015173ffffffffffffffffffffffffffffffffffffffff163373ffffffffffffffffffffffffffffffffffffffff1614610c61576040517f08c379a0000000000000000000000000000000000000000000000000000000008152600401610c5890611798565b60405180910390fd5b610c6a82610ffa565b15610caa576040517f08c379a0000000000000000000000000000000000000000000000000000000008152600401610ca190611804565b60405180910390fd5b806080015115610cef576040517f08c379a0000000000000000000000000000000000000000000000000000000008152600401610ce690611896565b60405180910390fd5b600160038381548110610d0557610d046112d7565b5b906000526020600020906007020160030160146101000a81548160ff021916908315150217905550600260009054906101000a900473ffffffffffffffffffffffffffffffffffffffff1673ffffffffffffffffffffffffffffffffffffffff16634e958d053383604001516040518363ffffffff1660e01b8152600401610d8e9291906114ea565b600060405180830381600087803b158015610da857600080fd5b505af1158015610dbc573d6000803e3d6000fd5b5050505050600160008190555050565b600060038281548110610de257610de16112d7565b5b906000526020600020906007020160010154905080600260009054906101000a900473ffffffffffffffffffffffffffffffffffffffff1673ffffffffffffffffffffffffffffffffffffffff1663dd62ed3e33306040518363ffffffff1660e01b8152600401610e54929190611306565b602060405180830381865afa158015610e71573d6000803e3d6000fd5b505050506040513d601f19601f82011682018060405250810190610e959190611344565b1015610ed6576040517f08c379a0000000000000000000000000000000000000000000000000000000008152600401610ecd90611902565b60405180910390fd5b6000600260009054906101000a900473ffffffffffffffffffffffffffffffffffffffff1673ffffffffffffffffffffffffffffffffffffffff166323b872dd3330856040518463ffffffff1660e01b8152600401610f37939291906113ee565b6020604051808303816000875af1158015610f56573d6000803e3d6000fd5b505050506040513d601f19601f82011682018060405250810190610f7a9190611451565b905080610fbc576040517f08c379a0000000000000000000000000000000000000000000000000000000008152600401610fb3906114ca565b60405180910390fd5b7f73c6c6f9f48c3edb228771b978f87929232a3ba942f770943d296df4dba96bf43384604051610fed9291906114ea565b60405180910390a1505050565b60006201518060038381548110611014576110136112d7565b5b90600052602060002090600702016004015442611031919061161a565b11159050919050565b600080fd5b6000819050919050565b6110528161103f565b811461105d57600080fd5b50565b60008135905061106f81611049565b92915050565b60006020828403121561108b5761108a61103a565b5b600061109984828501611060565b91505092915050565b600073ffffffffffffffffffffffffffffffffffffffff82169050919050565b60006110cd826110a2565b9050919050565b6110dd816110c2565b82525050565b60006020820190506110f860008301846110d4565b92915050565b611107816110c2565b811461111257600080fd5b50565b600081359050611124816110fe565b92915050565b6000602082840312156111405761113f61103a565b5b600061114e84828501611115565b91505092915050565b6000806000606084860312156111705761116f61103a565b5b600061117e86828701611060565b935050602061118f86828701611060565b92505060406111a086828701611060565b9150509250925092565b6111b38161103f565b82525050565b60006020820190506111ce60008301846111aa565b92915050565b6000806000606084860312156111ed576111ec61103a565b5b60006111fb86828701611060565b935050602061120c86828701611060565b925050604061121d86828701611115565b9150509250925092565b60008115159050919050565b61123c81611227565b82525050565b60006020820190506112576000830184611233565b92915050565b6000819050919050565b600061128261127d611278846110a2565b61125d565b6110a2565b9050919050565b600061129482611267565b9050919050565b60006112a682611289565b9050919050565b6112b68161129b565b82525050565b60006020820190506112d160008301846112ad565b92915050565b7f4e487b7100000000000000000000000000000000000000000000000000000000600052603260045260246000fd5b600060408201905061131b60008301856110d4565b61132860208301846110d4565b9392505050565b60008151905061133e81611049565b92915050565b60006020828403121561135a5761135961103a565b5b60006113688482850161132f565b91505092915050565b600082825260208201905092915050565b7f546f6b656e207370656e64696e67206e6f7420616c6c6f776564210000000000600082015250565b60006113b8601b83611371565b91506113c382611382565b602082019050919050565b600060208201905081810360008301526113e7816113ab565b9050919050565b600060608201905061140360008301866110d4565b61141060208301856110d4565b61141d60408301846111aa565b949350505050565b61142e81611227565b811461143957600080fd5b50565b60008151905061144b81611425565b92915050565b6000602082840312156114675761146661103a565b5b60006114758482850161143c565b91505092915050565b7f5061796d656e74206661696c6564210000000000000000000000000000000000600082015250565b60006114b4600f83611371565b91506114bf8261147e565b602082019050919050565b600060208201905081810360008301526114e3816114a7565b9050919050565b60006040820190506114ff60008301856110d4565b61150c60208301846111aa565b9392505050565b7f596f75277265206e6f7420746865206f776e6572000000000000000000000000600082015250565b6000611549601483611371565b915061155482611513565b602082019050919050565b600060208201905081810360008301526115788161153c565b9050919050565b7f4e6f20746f6b656e7320746f207472616e736665720000000000000000000000600082015250565b60006115b5601583611371565b91506115c08261157f565b602082019050919050565b600060208201905081810360008301526115e4816115a8565b9050919050565b7f4e487b7100000000000000000000000000000000000000000000000000000000600052601160045260246000fd5b60006116258261103f565b91506116308361103f565b925082821015611643576116426115eb565b5b828203905092915050565b7f54696d652063616e277420626520302100000000000000000000000000000000600082015250565b6000611684601083611371565b915061168f8261164e565b602082019050919050565b600060208201905081810360008301526116b381611677565b9050919050565b7f5265656e7472616e637947756172643a207265656e7472616e742063616c6c00600082015250565b60006116f0601f83611371565b91506116fb826116ba565b602082019050919050565b6000602082019050818103600083015261171f816116e3565b9050919050565b7f596f75277265206e6f74207468652077696e6e6572206f66207468652063686160008201527f6c6c656e67652100000000000000000000000000000000000000000000000000602082015250565b6000611782602783611371565b915061178d82611726565b604082019050919050565b600060208201905081810360008301526117b181611775565b9050919050565b7f546865206368616c6c656e6765206973207374696c6c206f70656e2100000000600082015250565b60006117ee601c83611371565b91506117f9826117b8565b602082019050919050565b6000602082019050818103600083015261181d816117e1565b9050919050565b7f5468652077696e6e65722068617320616c7265616479206265656e207061696460008201527f2100000000000000000000000000000000000000000000000000000000000000602082015250565b6000611880602183611371565b915061188b82611824565b604082019050919050565b600060208201905081810360008301526118af81611873565b9050919050565b7f546f6b656e207370656e64696e67206e6f7420616c6c6f776564000000000000600082015250565b60006118ec601a83611371565b91506118f7826118b6565b602082019050919050565b6000602082019050818103600083015261191b816118df565b905091905056fea264697066735822122092cac272c3e0aae270925eed76e2fe216a18a0c56b0a8e08b6bc1946ea7bb5c164736f6c634300080b0033",
  "linkReferences": {},
  "deployedLinkReferences": {}
}