{
  "_format": "hh-sol-artifact-1",
  "contractName": "Crosswords",
  "sourceName": "contracts/Crosswords.sol",
  "abi": [
    {
      "inputs": [
        {
          "internalType": "address",
          "name": "_tokenAddress",
          "type": "address"
        }
      ],
      "stateMutability": "nonpayable",
      "type": "constructor"
    },
    {
      "anonymous": false,
      "inputs": [
        {
          "indexed": false,
          "internalType": "address",
          "name": "from",
          "type": "address"
        },
        {
          "indexed": false,
          "internalType": "uint256",
          "name": "crosswordId",
          "type": "uint256"
        }
      ],
      "name": "RequestSquare",
      "type": "event"
    },
    {
      "anonymous": false,
      "inputs": [
        {
          "indexed": false,
          "internalType": "address",
          "name": "from",
          "type": "address"
        },
        {
          "indexed": false,
          "internalType": "uint256",
          "name": "crosswordId",
          "type": "uint256"
        }
      ],
      "name": "RequestWord",
      "type": "event"
    },
    {
      "inputs": [
        {
          "internalType": "uint256",
          "name": "",
          "type": "uint256"
        }
      ],
      "name": "crosswords",
      "outputs": [
        {
          "internalType": "uint256",
          "name": "squarePrice",
          "type": "uint256"
        },
        {
          "internalType": "uint256",
          "name": "wordPrice",
          "type": "uint256"
        },
        {
          "internalType": "uint256",
          "name": "challengePrize",
          "type": "uint256"
        },
        {
          "internalType": "address",
          "name": "winner",
          "type": "address"
        },
        {
          "internalType": "bool",
          "name": "winnerPaid",
          "type": "bool"
        },
        {
          "internalType": "uint256",
          "name": "timestamp",
          "type": "uint256"
        },
        {
          "internalType": "uint256",
          "name": "id",
          "type": "uint256"
        },
        {
          "internalType": "uint256",
          "name": "recordTime",
          "type": "uint256"
        }
      ],
      "stateMutability": "view",
      "type": "function"
    },
    {
      "inputs": [
        {
          "internalType": "uint256",
          "name": "_id",
          "type": "uint256"
        },
        {
          "internalType": "uint256",
          "name": "_time",
          "type": "uint256"
        },
        {
          "internalType": "address",
          "name": "_player",
          "type": "address"
        }
      ],
      "name": "endSession",
      "outputs": [
        {
          "internalType": "bool",
          "name": "",
          "type": "bool"
        }
      ],
      "stateMutability": "nonpayable",
      "type": "function"
    },
    {
      "inputs": [
        {
          "internalType": "uint256",
          "name": "_id",
          "type": "uint256"
        }
      ],
      "name": "getWinner",
      "outputs": [
        {
          "internalType": "address",
          "name": "",
          "type": "address"
        }
      ],
      "stateMutability": "view",
      "type": "function"
    },
    {
      "inputs": [
        {
          "internalType": "uint256",
          "name": "_id",
          "type": "uint256"
        }
      ],
      "name": "hasWinnerBeenPaid",
      "outputs": [
        {
          "internalType": "bool",
          "name": "",
          "type": "bool"
        }
      ],
      "stateMutability": "view",
      "type": "function"
    },
    {
      "inputs": [
        {
          "internalType": "uint256",
          "name": "_id",
          "type": "uint256"
        }
      ],
      "name": "isChallengeOn",
      "outputs": [
        {
          "internalType": "bool",
          "name": "",
          "type": "bool"
        }
      ],
      "stateMutability": "view",
      "type": "function"
    },
    {
      "inputs": [],
      "name": "mjToken",
      "outputs": [
        {
          "internalType": "contract MindJam",
          "name": "",
          "type": "address"
        }
      ],
      "stateMutability": "view",
      "type": "function"
    },
    {
      "inputs": [
        {
          "internalType": "uint256",
          "name": "_squarePrice",
          "type": "uint256"
        },
        {
          "internalType": "uint256",
          "name": "_wordPrice",
          "type": "uint256"
        },
        {
          "internalType": "uint256",
          "name": "_challengePrize",
          "type": "uint256"
        }
      ],
      "name": "newCrossword",
      "outputs": [
        {
          "internalType": "uint256",
          "name": "id",
          "type": "uint256"
        }
      ],
      "stateMutability": "nonpayable",
      "type": "function"
    },
    {
      "inputs": [],
      "name": "owner",
      "outputs": [
        {
          "internalType": "address",
          "name": "",
          "type": "address"
        }
      ],
      "stateMutability": "view",
      "type": "function"
    },
    {
      "inputs": [
        {
          "internalType": "uint256",
          "name": "_id",
          "type": "uint256"
        }
      ],
      "name": "payWinner",
      "outputs": [],
      "stateMutability": "nonpayable",
      "type": "function"
    },
    {
      "inputs": [
        {
          "internalType": "uint256",
          "name": "_id",
          "type": "uint256"
        }
      ],
      "name": "requestSquare",
      "outputs": [],
      "stateMutability": "nonpayable",
      "type": "function"
    },
    {
      "inputs": [
        {
          "internalType": "uint256",
          "name": "_id",
          "type": "uint256"
        }
      ],
      "name": "requestWord",
      "outputs": [],
      "stateMutability": "nonpayable",
      "type": "function"
    },
    {
      "inputs": [
        {
          "internalType": "address",
          "name": "_to",
          "type": "address"
        }
      ],
      "name": "withdraw",
      "outputs": [],
      "stateMutability": "nonpayable",
      "type": "function"
    }
  ],
  "bytecode": "0x60806040523480156200001157600080fd5b506040516200201138038062002011833981810160405281019062000037919062000132565b600160008190555033600160006101000a81548173ffffffffffffffffffffffffffffffffffffffff021916908373ffffffffffffffffffffffffffffffffffffffff16021790555080600260006101000a81548173ffffffffffffffffffffffffffffffffffffffff021916908373ffffffffffffffffffffffffffffffffffffffff1602179055505062000164565b600080fd5b600073ffffffffffffffffffffffffffffffffffffffff82169050919050565b6000620000fa82620000cd565b9050919050565b6200010c81620000ed565b81146200011857600080fd5b50565b6000815190506200012c8162000101565b92915050565b6000602082840312156200014b576200014a620000c8565b5b60006200015b848285016200011b565b91505092915050565b611e9d80620001746000396000f3fe608060405234801561001057600080fd5b50600436106100b45760003560e01c80637eb98d51116100715780637eb98d51146101b85780638da5cb5b146101d6578063a5c0449f146101f4578063d0110ddb14610210578063de820f111461022c578063f19900cd1461025c576100b4565b80631c9fcd9d146100b95780634129b2c9146100e95780634809b6041461011957806351cff8d9146101355780636e907e6b1461015157806371ac900514610188575b600080fd5b6100d360048036038101906100ce9190611456565b61028c565b6040516100e091906114c4565b60405180910390f35b61010360048036038101906100fe91906114df565b6104cd565b604051610110919061151b565b60405180910390f35b610133600480360381019061012e91906114df565b61051c565b005b61014f600480360381019061014a9190611536565b61086f565b005b61016b600480360381019061016691906114df565b610a87565b60405161017f989796959493929190611572565b60405180910390f35b6101a2600480360381019061019d91906115f0565b610b0c565b6040516101af9190611643565b60405180910390f35b6101c0610c42565b6040516101cd91906116bd565b60405180910390f35b6101de610c68565b6040516101eb919061151b565b60405180910390f35b61020e600480360381019061020991906114df565b610c8e565b005b61022a600480360381019061022591906114df565b610fee565b005b610246600480360381019061024191906114df565b611341565b60405161025391906114c4565b60405180910390f35b610276600480360381019061027191906114df565b61137d565b60405161028391906114c4565b60405180910390f35b60008083116102d0576040517f08c379a00000000000000000000000000000000000000000000000000000000081526004016102c790611735565b60405180910390fd5b6003805490508410610317576040517f08c379a000000000000000000000000000000000000000000000000000000000815260040161030e906117a1565b60405180910390fd5b60006003858154811061032d5761032c6117c1565b5b9060005260206000209060070201604051806101000160405290816000820154815260200160018201548152602001600282015481526020016003820160009054906101000a900473ffffffffffffffffffffffffffffffffffffffff1673ffffffffffffffffffffffffffffffffffffffff1673ffffffffffffffffffffffffffffffffffffffff1681526020016003820160149054906101000a900460ff16151515158152602001600482015481526020016005820154815260200160068201548152505090506103ff8561137d565b61040d5760009150506104c6565b60008160e00151148061042357508060e0015184105b156104c057836003868154811061043d5761043c6117c1565b5b9060005260206000209060070201600601819055508260038681548110610467576104666117c1565b5b906000526020600020906007020160030160006101000a81548173ffffffffffffffffffffffffffffffffffffffff021916908373ffffffffffffffffffffffffffffffffffffffff16021790555060019150506104c6565b60009150505b9392505050565b6000600382815481106104e3576104e26117c1565b5b906000526020600020906007020160030160009054906101000a900473ffffffffffffffffffffffffffffffffffffffff169050919050565b6003805490508110610563576040517f08c379a000000000000000000000000000000000000000000000000000000000815260040161055a906117a1565b60405180910390fd5b600060038281548110610579576105786117c1565b5b906000526020600020906007020160000154905080600260009054906101000a900473ffffffffffffffffffffffffffffffffffffffff1673ffffffffffffffffffffffffffffffffffffffff166370a08231336040518263ffffffff1660e01b81526004016105e9919061151b565b602060405180830381865afa158015610606573d6000803e3d6000fd5b505050506040513d601f19601f8201168201806040525081019061062a9190611805565b101561066b576040517f08c379a00000000000000000000000000000000000000000000000000000000081526004016106629061187e565b60405180910390fd5b80600260009054906101000a900473ffffffffffffffffffffffffffffffffffffffff1673ffffffffffffffffffffffffffffffffffffffff1663dd62ed3e33306040518363ffffffff1660e01b81526004016106c992919061189e565b602060405180830381865afa1580156106e6573d6000803e3d6000fd5b505050506040513d601f19601f8201168201806040525081019061070a9190611805565b101561074b576040517f08c379a000000000000000000000000000000000000000000000000000000000815260040161074290611913565b60405180910390fd5b6000600260009054906101000a900473ffffffffffffffffffffffffffffffffffffffff1673ffffffffffffffffffffffffffffffffffffffff166323b872dd3330856040518463ffffffff1660e01b81526004016107ac93929190611933565b6020604051808303816000875af11580156107cb573d6000803e3d6000fd5b505050506040513d601f19601f820116820180604052508101906107ef9190611996565b905080610831576040517f08c379a000000000000000000000000000000000000000000000000000000000815260040161082890611a0f565b60405180910390fd5b7fe045cbd5916b211239adad468f70ad42e2071a56ddc02ec5fe00ea945106b8b73384604051610862929190611a2f565b60405180910390a1505050565b600160009054906101000a900473ffffffffffffffffffffffffffffffffffffffff1673ffffffffffffffffffffffffffffffffffffffff163373ffffffffffffffffffffffffffffffffffffffff16146108ff576040517f08c379a00000000000000000000000000000000000000000000000000000000081526004016108f690611aa4565b60405180910390fd5b6000600260009054906101000a900473ffffffffffffffffffffffffffffffffffffffff1673ffffffffffffffffffffffffffffffffffffffff166370a08231306040518263ffffffff1660e01b815260040161095c919061151b565b602060405180830381865afa158015610979573d6000803e3d6000fd5b505050506040513d601f19601f8201168201806040525081019061099d9190611805565b9050600081116109e2576040517f08c379a00000000000000000000000000000000000000000000000000000000081526004016109d990611b10565b60405180910390fd5b600260009054906101000a900473ffffffffffffffffffffffffffffffffffffffff1673ffffffffffffffffffffffffffffffffffffffff1663a9059cbb83836040518363ffffffff1660e01b8152600401610a3f929190611a2f565b6020604051808303816000875af1158015610a5e573d6000803e3d6000fd5b505050506040513d601f19601f82011682018060405250810190610a829190611996565b505050565b60038181548110610a9757600080fd5b90600052602060002090600702016000915090508060000154908060010154908060020154908060030160009054906101000a900473ffffffffffffffffffffffffffffffffffffffff16908060030160149054906101000a900460ff16908060040154908060050154908060060154905088565b600060038054905090506003604051806101000160405280868152602001858152602001848152602001600073ffffffffffffffffffffffffffffffffffffffff1681526020016000151581526020014281526020018381526020016000815250908060018154018082558091505060019003906000526020600020906007020160009091909190915060008201518160000155602082015181600101556040820151816002015560608201518160030160006101000a81548173ffffffffffffffffffffffffffffffffffffffff021916908373ffffffffffffffffffffffffffffffffffffffff16021790555060808201518160030160146101000a81548160ff02191690831515021790555060a0820151816004015560c0820151816005015560e0820151816006015550509392505050565b600260009054906101000a900473ffffffffffffffffffffffffffffffffffffffff1681565b600160009054906101000a900473ffffffffffffffffffffffffffffffffffffffff1681565b60026000541415610cd4576040517f08c379a0000000000000000000000000000000000000000000000000000000008152600401610ccb90611b7c565b60405180910390fd5b6002600081905550600060038281548110610cf257610cf16117c1565b5b9060005260206000209060070201604051806101000160405290816000820154815260200160018201548152602001600282015481526020016003820160009054906101000a900473ffffffffffffffffffffffffffffffffffffffff1673ffffffffffffffffffffffffffffffffffffffff1673ffffffffffffffffffffffffffffffffffffffff1681526020016003820160149054906101000a900460ff1615151515815260200160048201548152602001600582015481526020016006820154815250509050806060015173ffffffffffffffffffffffffffffffffffffffff163373ffffffffffffffffffffffffffffffffffffffff1614610e2d576040517f08c379a0000000000000000000000000000000000000000000000000000000008152600401610e2490611c0e565b60405180910390fd5b610e368261137d565b15610e76576040517f08c379a0000000000000000000000000000000000000000000000000000000008152600401610e6d90611c7a565b60405180910390fd5b806080015115610ebb576040517f08c379a0000000000000000000000000000000000000000000000000000000008152600401610eb290611d0c565b60405180910390fd5b600160038381548110610ed157610ed06117c1565b5b906000526020600020906007020160030160146101000a81548160ff0219169083151502179055506000600260009054906101000a900473ffffffffffffffffffffffffffffffffffffffff1673ffffffffffffffffffffffffffffffffffffffff1663a9059cbb3384604001516040518363ffffffff1660e01b8152600401610f5c929190611a2f565b6020604051808303816000875af1158015610f7b573d6000803e3d6000fd5b505050506040513d601f19601f82011682018060405250810190610f9f9190611996565b905080610fe1576040517f08c379a0000000000000000000000000000000000000000000000000000000008152600401610fd890611d78565b60405180910390fd5b5050600160008190555050565b6003805490508110611035576040517f08c379a000000000000000000000000000000000000000000000000000000000815260040161102c906117a1565b60405180910390fd5b60006003828154811061104b5761104a6117c1565b5b906000526020600020906007020160010154905080600260009054906101000a900473ffffffffffffffffffffffffffffffffffffffff1673ffffffffffffffffffffffffffffffffffffffff166370a08231336040518263ffffffff1660e01b81526004016110bb919061151b565b602060405180830381865afa1580156110d8573d6000803e3d6000fd5b505050506040513d601f19601f820116820180604052508101906110fc9190611805565b101561113d576040517f08c379a00000000000000000000000000000000000000000000000000000000081526004016111349061187e565b60405180910390fd5b80600260009054906101000a900473ffffffffffffffffffffffffffffffffffffffff1673ffffffffffffffffffffffffffffffffffffffff1663dd62ed3e33306040518363ffffffff1660e01b815260040161119b92919061189e565b602060405180830381865afa1580156111b8573d6000803e3d6000fd5b505050506040513d601f19601f820116820180604052508101906111dc9190611805565b101561121d576040517f08c379a000000000000000000000000000000000000000000000000000000000815260040161121490611de4565b60405180910390fd5b6000600260009054906101000a900473ffffffffffffffffffffffffffffffffffffffff1673ffffffffffffffffffffffffffffffffffffffff166323b872dd3330856040518463ffffffff1660e01b815260040161127e93929190611933565b6020604051808303816000875af115801561129d573d6000803e3d6000fd5b505050506040513d601f19601f820116820180604052508101906112c19190611996565b905080611303576040517f08c379a00000000000000000000000000000000000000000000000000000000081526004016112fa90611a0f565b60405180910390fd5b7fbc0a2a94672ab381b5635558a985d526a6aadee160e4ac1cbb1c92a3ebdf15403384604051611334929190611a2f565b60405180910390a1505050565b600060038281548110611357576113566117c1565b5b906000526020600020906007020160030160149054906101000a900460ff169050919050565b60006201518060038381548110611397576113966117c1565b5b906000526020600020906007020160040154426113b49190611e33565b11159050919050565b600080fd5b6000819050919050565b6113d5816113c2565b81146113e057600080fd5b50565b6000813590506113f2816113cc565b92915050565b600073ffffffffffffffffffffffffffffffffffffffff82169050919050565b6000611423826113f8565b9050919050565b61143381611418565b811461143e57600080fd5b50565b6000813590506114508161142a565b92915050565b60008060006060848603121561146f5761146e6113bd565b5b600061147d868287016113e3565b935050602061148e868287016113e3565b925050604061149f86828701611441565b9150509250925092565b60008115159050919050565b6114be816114a9565b82525050565b60006020820190506114d960008301846114b5565b92915050565b6000602082840312156114f5576114f46113bd565b5b6000611503848285016113e3565b91505092915050565b61151581611418565b82525050565b6000602082019050611530600083018461150c565b92915050565b60006020828403121561154c5761154b6113bd565b5b600061155a84828501611441565b91505092915050565b61156c816113c2565b82525050565b600061010082019050611588600083018b611563565b611595602083018a611563565b6115a26040830189611563565b6115af606083018861150c565b6115bc60808301876114b5565b6115c960a0830186611563565b6115d660c0830185611563565b6115e360e0830184611563565b9998505050505050505050565b600080600060608486031215611609576116086113bd565b5b6000611617868287016113e3565b9350506020611628868287016113e3565b9250506040611639868287016113e3565b9150509250925092565b60006020820190506116586000830184611563565b92915050565b6000819050919050565b600061168361167e611679846113f8565b61165e565b6113f8565b9050919050565b600061169582611668565b9050919050565b60006116a78261168a565b9050919050565b6116b78161169c565b82525050565b60006020820190506116d260008301846116ae565b92915050565b600082825260208201905092915050565b7f54696d652063616e277420626520302100000000000000000000000000000000600082015250565b600061171f6010836116d8565b915061172a826116e9565b602082019050919050565b6000602082019050818103600083015261174e81611712565b9050919050565b7f496e646578206f7574206f6620626f756e642100000000000000000000000000600082015250565b600061178b6013836116d8565b915061179682611755565b602082019050919050565b600060208201905081810360008301526117ba8161177e565b9050919050565b7f4e487b7100000000000000000000000000000000000000000000000000000000600052603260045260246000fd5b6000815190506117ff816113cc565b92915050565b60006020828403121561181b5761181a6113bd565b5b6000611829848285016117f0565b91505092915050565b7f596f7520646f6e2774206861766520656e6f75676820746f6b656e7321000000600082015250565b6000611868601d836116d8565b915061187382611832565b602082019050919050565b600060208201905081810360008301526118978161185b565b9050919050565b60006040820190506118b3600083018561150c565b6118c0602083018461150c565b9392505050565b7f546f6b656e207370656e64696e67206e6f7420616c6c6f776564210000000000600082015250565b60006118fd601b836116d8565b9150611908826118c7565b602082019050919050565b6000602082019050818103600083015261192c816118f0565b9050919050565b6000606082019050611948600083018661150c565b611955602083018561150c565b6119626040830184611563565b949350505050565b611973816114a9565b811461197e57600080fd5b50565b6000815190506119908161196a565b92915050565b6000602082840312156119ac576119ab6113bd565b5b60006119ba84828501611981565b91505092915050565b7f5061796d656e74206661696c6564210000000000000000000000000000000000600082015250565b60006119f9600f836116d8565b9150611a04826119c3565b602082019050919050565b60006020820190508181036000830152611a28816119ec565b9050919050565b6000604082019050611a44600083018561150c565b611a516020830184611563565b9392505050565b7f596f75277265206e6f7420746865206f776e6572000000000000000000000000600082015250565b6000611a8e6014836116d8565b9150611a9982611a58565b602082019050919050565b60006020820190508181036000830152611abd81611a81565b9050919050565b7f4e6f20746f6b656e7320746f207472616e736665720000000000000000000000600082015250565b6000611afa6015836116d8565b9150611b0582611ac4565b602082019050919050565b60006020820190508181036000830152611b2981611aed565b9050919050565b7f5265656e7472616e637947756172643a207265656e7472616e742063616c6c00600082015250565b6000611b66601f836116d8565b9150611b7182611b30565b602082019050919050565b60006020820190508181036000830152611b9581611b59565b9050919050565b7f596f75277265206e6f74207468652077696e6e6572206f66207468652063686160008201527f6c6c656e67652100000000000000000000000000000000000000000000000000602082015250565b6000611bf86027836116d8565b9150611c0382611b9c565b604082019050919050565b60006020820190508181036000830152611c2781611beb565b9050919050565b7f546865206368616c6c656e6765206973207374696c6c206f70656e2100000000600082015250565b6000611c64601c836116d8565b9150611c6f82611c2e565b602082019050919050565b60006020820190508181036000830152611c9381611c57565b9050919050565b7f5468652077696e6e65722068617320616c7265616479206265656e207061696460008201527f2100000000000000000000000000000000000000000000000000000000000000602082015250565b6000611cf66021836116d8565b9150611d0182611c9a565b604082019050919050565b60006020820190508181036000830152611d2581611ce9565b9050919050565b7f5472616e73616374696f6e2072656a6563746564000000000000000000000000600082015250565b6000611d626014836116d8565b9150611d6d82611d2c565b602082019050919050565b60006020820190508181036000830152611d9181611d55565b9050919050565b7f546f6b656e207370656e64696e67206e6f7420616c6c6f776564000000000000600082015250565b6000611dce601a836116d8565b9150611dd982611d98565b602082019050919050565b60006020820190508181036000830152611dfd81611dc1565b9050919050565b7f4e487b7100000000000000000000000000000000000000000000000000000000600052601160045260246000fd5b6000611e3e826113c2565b9150611e49836113c2565b925082821015611e5c57611e5b611e04565b5b82820390509291505056fea264697066735822122019101c8db09e2a79024b636d63c7662bbb8b8b7c2083e8860d027d05d496352164736f6c634300080b0033",
  "linkReferences": {},
  "deployedLinkReferences": {}
}