{
  "_format": "hh-sol-artifact-1",
  "contractName": "Crosswords",
  "sourceName": "contracts/Crosswords.sol",
  "abi": [
    {
      "inputs": [
        {
          "internalType": "address",
          "name": "_tokenAddress",
          "type": "address"
        }
      ],
      "stateMutability": "nonpayable",
      "type": "constructor"
    },
    {
      "anonymous": false,
      "inputs": [
        {
          "indexed": false,
          "internalType": "address",
          "name": "from",
          "type": "address"
        },
        {
          "indexed": false,
          "internalType": "uint256",
          "name": "crosswordId",
          "type": "uint256"
        }
      ],
      "name": "RequestSquare",
      "type": "event"
    },
    {
      "anonymous": false,
      "inputs": [
        {
          "indexed": false,
          "internalType": "address",
          "name": "from",
          "type": "address"
        },
        {
          "indexed": false,
          "internalType": "uint256",
          "name": "crosswordId",
          "type": "uint256"
        }
      ],
      "name": "RequestWord",
      "type": "event"
    },
    {
      "inputs": [
        {
          "internalType": "uint256",
          "name": "",
          "type": "uint256"
        }
      ],
      "name": "crosswords",
      "outputs": [
        {
          "internalType": "uint256",
          "name": "squarePrice",
          "type": "uint256"
        },
        {
          "internalType": "uint256",
          "name": "wordPrice",
          "type": "uint256"
        },
        {
          "internalType": "uint256",
          "name": "challengePrize",
          "type": "uint256"
        },
        {
          "internalType": "address",
          "name": "winner",
          "type": "address"
        },
        {
          "internalType": "bool",
          "name": "winnerPaid",
          "type": "bool"
        },
        {
          "internalType": "uint256",
          "name": "timestamp",
          "type": "uint256"
        },
        {
          "internalType": "uint256",
          "name": "id",
          "type": "uint256"
        },
        {
          "internalType": "uint256",
          "name": "recordTime",
          "type": "uint256"
        }
      ],
      "stateMutability": "view",
      "type": "function"
    },
    {
      "inputs": [
        {
          "internalType": "uint256",
          "name": "_id",
          "type": "uint256"
        }
      ],
      "name": "getWinner",
      "outputs": [
        {
          "internalType": "address",
          "name": "",
          "type": "address"
        }
      ],
      "stateMutability": "view",
      "type": "function"
    },
    {
      "inputs": [
        {
          "internalType": "uint256",
          "name": "_id",
          "type": "uint256"
        }
      ],
      "name": "isChallengeOn",
      "outputs": [
        {
          "internalType": "bool",
          "name": "",
          "type": "bool"
        }
      ],
      "stateMutability": "view",
      "type": "function"
    },
    {
      "inputs": [],
      "name": "mjToken",
      "outputs": [
        {
          "internalType": "contract MindJam",
          "name": "",
          "type": "address"
        }
      ],
      "stateMutability": "view",
      "type": "function"
    },
    {
      "inputs": [
        {
          "internalType": "uint256",
          "name": "_squarePrice",
          "type": "uint256"
        },
        {
          "internalType": "uint256",
          "name": "_wordPrice",
          "type": "uint256"
        },
        {
          "internalType": "uint256",
          "name": "_challengePrize",
          "type": "uint256"
        }
      ],
      "name": "newCrossword",
      "outputs": [],
      "stateMutability": "nonpayable",
      "type": "function"
    },
    {
      "inputs": [],
      "name": "owner",
      "outputs": [
        {
          "internalType": "address",
          "name": "",
          "type": "address"
        }
      ],
      "stateMutability": "view",
      "type": "function"
    },
    {
      "inputs": [
        {
          "internalType": "uint256",
          "name": "_id",
          "type": "uint256"
        }
      ],
      "name": "payWinner",
      "outputs": [],
      "stateMutability": "nonpayable",
      "type": "function"
    },
    {
      "inputs": [
        {
          "internalType": "uint256",
          "name": "_id",
          "type": "uint256"
        }
      ],
      "name": "requestSquare",
      "outputs": [],
      "stateMutability": "nonpayable",
      "type": "function"
    },
    {
      "inputs": [
        {
          "internalType": "uint256",
          "name": "_id",
          "type": "uint256"
        }
      ],
      "name": "requestWord",
      "outputs": [],
      "stateMutability": "nonpayable",
      "type": "function"
    },
    {
      "inputs": [
        {
          "internalType": "uint256",
          "name": "_id",
          "type": "uint256"
        },
        {
          "internalType": "uint256",
          "name": "_time",
          "type": "uint256"
        },
        {
          "internalType": "address",
          "name": "_player",
          "type": "address"
        }
      ],
      "name": "sessionEnded",
      "outputs": [
        {
          "internalType": "bool",
          "name": "",
          "type": "bool"
        }
      ],
      "stateMutability": "nonpayable",
      "type": "function"
    },
    {
      "inputs": [
        {
          "internalType": "address",
          "name": "_to",
          "type": "address"
        }
      ],
      "name": "withdraw",
      "outputs": [],
      "stateMutability": "nonpayable",
      "type": "function"
    }
  ],
  "bytecode": "0x60806040523480156200001157600080fd5b5060405162001b3938038062001b39833981810160405281019062000037919062000132565b600160008190555033600160006101000a81548173ffffffffffffffffffffffffffffffffffffffff021916908373ffffffffffffffffffffffffffffffffffffffff16021790555080600260006101000a81548173ffffffffffffffffffffffffffffffffffffffff021916908373ffffffffffffffffffffffffffffffffffffffff1602179055505062000164565b600080fd5b600073ffffffffffffffffffffffffffffffffffffffff82169050919050565b6000620000fa82620000cd565b9050919050565b6200010c81620000ed565b81146200011857600080fd5b50565b6000815190506200012c8162000101565b92915050565b6000602082840312156200014b576200014a620000c8565b5b60006200015b848285016200011b565b91505092915050565b6119c580620001746000396000f3fe608060405234801561001057600080fd5b50600436106100a95760003560e01c806375f505751161007157806375f50575146101695780637eb98d51146101995780638da5cb5b146101b7578063a5c0449f146101d5578063d0110ddb146101f1578063f19900cd1461020d576100a9565b80634129b2c9146100ae5780634809b604146100de57806351cff8d9146100fa5780636e907e6b1461011657806371ac90051461014d575b600080fd5b6100c860048036038101906100c3919061107f565b61023d565b6040516100d591906110ed565b60405180910390f35b6100f860048036038101906100f3919061107f565b61028c565b005b610114600480360381019061010f9190611134565b6104ba565b005b610130600480360381019061012b919061107f565b6106d2565b60405161014498979695949392919061118b565b60405180910390f35b61016760048036038101906101629190611209565b610757565b005b610183600480360381019061017e919061125c565b610886565b60405161019091906112af565b60405180910390f35b6101a1610a80565b6040516101ae9190611329565b60405180910390f35b6101bf610aa6565b6040516101cc91906110ed565b60405180910390f35b6101ef60048036038101906101ea919061107f565b610acc565b005b61020b6004803603810190610206919061107f565b610dd6565b005b6102276004803603810190610222919061107f565b611004565b60405161023491906112af565b60405180910390f35b60006003828154811061025357610252611344565b5b906000526020600020906007020160030160009054906101000a900473ffffffffffffffffffffffffffffffffffffffff169050919050565b6000600382815481106102a2576102a1611344565b5b906000526020600020906007020160000154905080600260009054906101000a900473ffffffffffffffffffffffffffffffffffffffff1673ffffffffffffffffffffffffffffffffffffffff1663dd62ed3e33306040518363ffffffff1660e01b8152600401610314929190611373565b602060405180830381865afa158015610331573d6000803e3d6000fd5b505050506040513d601f19601f8201168201806040525081019061035591906113b1565b1015610396576040517f08c379a000000000000000000000000000000000000000000000000000000000815260040161038d9061143b565b60405180910390fd5b6000600260009054906101000a900473ffffffffffffffffffffffffffffffffffffffff1673ffffffffffffffffffffffffffffffffffffffff166323b872dd3330856040518463ffffffff1660e01b81526004016103f79392919061145b565b6020604051808303816000875af1158015610416573d6000803e3d6000fd5b505050506040513d601f19601f8201168201806040525081019061043a91906114be565b90508061047c576040517f08c379a000000000000000000000000000000000000000000000000000000000815260040161047390611537565b60405180910390fd5b7fe045cbd5916b211239adad468f70ad42e2071a56ddc02ec5fe00ea945106b8b733846040516104ad929190611557565b60405180910390a1505050565b600160009054906101000a900473ffffffffffffffffffffffffffffffffffffffff1673ffffffffffffffffffffffffffffffffffffffff163373ffffffffffffffffffffffffffffffffffffffff161461054a576040517f08c379a0000000000000000000000000000000000000000000000000000000008152600401610541906115cc565b60405180910390fd5b6000600260009054906101000a900473ffffffffffffffffffffffffffffffffffffffff1673ffffffffffffffffffffffffffffffffffffffff166370a08231306040518263ffffffff1660e01b81526004016105a791906110ed565b602060405180830381865afa1580156105c4573d6000803e3d6000fd5b505050506040513d601f19601f820116820180604052508101906105e891906113b1565b90506000811161062d576040517f08c379a000000000000000000000000000000000000000000000000000000000815260040161062490611638565b60405180910390fd5b600260009054906101000a900473ffffffffffffffffffffffffffffffffffffffff1673ffffffffffffffffffffffffffffffffffffffff1663a9059cbb83836040518363ffffffff1660e01b815260040161068a929190611557565b6020604051808303816000875af11580156106a9573d6000803e3d6000fd5b505050506040513d601f19601f820116820180604052508101906106cd91906114be565b505050565b600381815481106106e257600080fd5b90600052602060002090600702016000915090508060000154908060010154908060020154908060030160009054906101000a900473ffffffffffffffffffffffffffffffffffffffff16908060030160149054906101000a900460ff16908060040154908060050154908060060154905088565b6003604051806101000160405280858152602001848152602001838152602001600073ffffffffffffffffffffffffffffffffffffffff16815260200160001515815260200142815260200160038054905081526020016000815250908060018154018082558091505060019003906000526020600020906007020160009091909190915060008201518160000155602082015181600101556040820151816002015560608201518160030160006101000a81548173ffffffffffffffffffffffffffffffffffffffff021916908373ffffffffffffffffffffffffffffffffffffffff16021790555060808201518160030160146101000a81548160ff02191690831515021790555060a0820151816004015560c0820151816005015560e082015181600601555050505050565b60008083116108ca576040517f08c379a00000000000000000000000000000000000000000000000000000000081526004016108c1906116a4565b60405180910390fd5b6000600385815481106108e0576108df611344565b5b9060005260206000209060070201604051806101000160405290816000820154815260200160018201548152602001600282015481526020016003820160009054906101000a900473ffffffffffffffffffffffffffffffffffffffff1673ffffffffffffffffffffffffffffffffffffffff1673ffffffffffffffffffffffffffffffffffffffff1681526020016003820160149054906101000a900460ff16151515158152602001600482015481526020016005820154815260200160068201548152505090506109b285611004565b6109c0576000915050610a79565b60008160e0015114806109d657508060e0015184105b15610a735783600386815481106109f0576109ef611344565b5b9060005260206000209060070201600601819055508260038681548110610a1a57610a19611344565b5b906000526020600020906007020160030160006101000a81548173ffffffffffffffffffffffffffffffffffffffff021916908373ffffffffffffffffffffffffffffffffffffffff1602179055506001915050610a79565b60009150505b9392505050565b600260009054906101000a900473ffffffffffffffffffffffffffffffffffffffff1681565b600160009054906101000a900473ffffffffffffffffffffffffffffffffffffffff1681565b60026000541415610b12576040517f08c379a0000000000000000000000000000000000000000000000000000000008152600401610b0990611710565b60405180910390fd5b6002600081905550600060038281548110610b3057610b2f611344565b5b9060005260206000209060070201604051806101000160405290816000820154815260200160018201548152602001600282015481526020016003820160009054906101000a900473ffffffffffffffffffffffffffffffffffffffff1673ffffffffffffffffffffffffffffffffffffffff1673ffffffffffffffffffffffffffffffffffffffff1681526020016003820160149054906101000a900460ff1615151515815260200160048201548152602001600582015481526020016006820154815250509050806060015173ffffffffffffffffffffffffffffffffffffffff163373ffffffffffffffffffffffffffffffffffffffff1614610c6b576040517f08c379a0000000000000000000000000000000000000000000000000000000008152600401610c62906117a2565b60405180910390fd5b610c7482611004565b15610cb4576040517f08c379a0000000000000000000000000000000000000000000000000000000008152600401610cab9061180e565b60405180910390fd5b806080015115610cf9576040517f08c379a0000000000000000000000000000000000000000000000000000000008152600401610cf0906118a0565b60405180910390fd5b600160038381548110610d0f57610d0e611344565b5b906000526020600020906007020160030160146101000a81548160ff021916908315150217905550600260009054906101000a900473ffffffffffffffffffffffffffffffffffffffff1673ffffffffffffffffffffffffffffffffffffffff16634e958d053383604001516040518363ffffffff1660e01b8152600401610d98929190611557565b600060405180830381600087803b158015610db257600080fd5b505af1158015610dc6573d6000803e3d6000fd5b5050505050600160008190555050565b600060038281548110610dec57610deb611344565b5b906000526020600020906007020160010154905080600260009054906101000a900473ffffffffffffffffffffffffffffffffffffffff1673ffffffffffffffffffffffffffffffffffffffff1663dd62ed3e33306040518363ffffffff1660e01b8152600401610e5e929190611373565b602060405180830381865afa158015610e7b573d6000803e3d6000fd5b505050506040513d601f19601f82011682018060405250810190610e9f91906113b1565b1015610ee0576040517f08c379a0000000000000000000000000000000000000000000000000000000008152600401610ed79061190c565b60405180910390fd5b6000600260009054906101000a900473ffffffffffffffffffffffffffffffffffffffff1673ffffffffffffffffffffffffffffffffffffffff166323b872dd3330856040518463ffffffff1660e01b8152600401610f419392919061145b565b6020604051808303816000875af1158015610f60573d6000803e3d6000fd5b505050506040513d601f19601f82011682018060405250810190610f8491906114be565b905080610fc6576040517f08c379a0000000000000000000000000000000000000000000000000000000008152600401610fbd90611537565b60405180910390fd5b7fbc0a2a94672ab381b5635558a985d526a6aadee160e4ac1cbb1c92a3ebdf15403384604051610ff7929190611557565b60405180910390a1505050565b6000620151806003838154811061101e5761101d611344565b5b9060005260206000209060070201600401544261103b919061195b565b11159050919050565b600080fd5b6000819050919050565b61105c81611049565b811461106757600080fd5b50565b60008135905061107981611053565b92915050565b60006020828403121561109557611094611044565b5b60006110a38482850161106a565b91505092915050565b600073ffffffffffffffffffffffffffffffffffffffff82169050919050565b60006110d7826110ac565b9050919050565b6110e7816110cc565b82525050565b600060208201905061110260008301846110de565b92915050565b611111816110cc565b811461111c57600080fd5b50565b60008135905061112e81611108565b92915050565b60006020828403121561114a57611149611044565b5b60006111588482850161111f565b91505092915050565b61116a81611049565b82525050565b60008115159050919050565b61118581611170565b82525050565b6000610100820190506111a1600083018b611161565b6111ae602083018a611161565b6111bb6040830189611161565b6111c860608301886110de565b6111d5608083018761117c565b6111e260a0830186611161565b6111ef60c0830185611161565b6111fc60e0830184611161565b9998505050505050505050565b60008060006060848603121561122257611221611044565b5b60006112308682870161106a565b93505060206112418682870161106a565b92505060406112528682870161106a565b9150509250925092565b60008060006060848603121561127557611274611044565b5b60006112838682870161106a565b93505060206112948682870161106a565b92505060406112a58682870161111f565b9150509250925092565b60006020820190506112c4600083018461117c565b92915050565b6000819050919050565b60006112ef6112ea6112e5846110ac565b6112ca565b6110ac565b9050919050565b6000611301826112d4565b9050919050565b6000611313826112f6565b9050919050565b61132381611308565b82525050565b600060208201905061133e600083018461131a565b92915050565b7f4e487b7100000000000000000000000000000000000000000000000000000000600052603260045260246000fd5b600060408201905061138860008301856110de565b61139560208301846110de565b9392505050565b6000815190506113ab81611053565b92915050565b6000602082840312156113c7576113c6611044565b5b60006113d58482850161139c565b91505092915050565b600082825260208201905092915050565b7f546f6b656e207370656e64696e67206e6f7420616c6c6f776564210000000000600082015250565b6000611425601b836113de565b9150611430826113ef565b602082019050919050565b6000602082019050818103600083015261145481611418565b9050919050565b600060608201905061147060008301866110de565b61147d60208301856110de565b61148a6040830184611161565b949350505050565b61149b81611170565b81146114a657600080fd5b50565b6000815190506114b881611492565b92915050565b6000602082840312156114d4576114d3611044565b5b60006114e2848285016114a9565b91505092915050565b7f5061796d656e74206661696c6564210000000000000000000000000000000000600082015250565b6000611521600f836113de565b915061152c826114eb565b602082019050919050565b6000602082019050818103600083015261155081611514565b9050919050565b600060408201905061156c60008301856110de565b6115796020830184611161565b9392505050565b7f596f75277265206e6f7420746865206f776e6572000000000000000000000000600082015250565b60006115b66014836113de565b91506115c182611580565b602082019050919050565b600060208201905081810360008301526115e5816115a9565b9050919050565b7f4e6f20746f6b656e7320746f207472616e736665720000000000000000000000600082015250565b60006116226015836113de565b915061162d826115ec565b602082019050919050565b6000602082019050818103600083015261165181611615565b9050919050565b7f54696d652063616e277420626520302100000000000000000000000000000000600082015250565b600061168e6010836113de565b915061169982611658565b602082019050919050565b600060208201905081810360008301526116bd81611681565b9050919050565b7f5265656e7472616e637947756172643a207265656e7472616e742063616c6c00600082015250565b60006116fa601f836113de565b9150611705826116c4565b602082019050919050565b60006020820190508181036000830152611729816116ed565b9050919050565b7f596f75277265206e6f74207468652077696e6e6572206f66207468652063686160008201527f6c6c656e67652100000000000000000000000000000000000000000000000000602082015250565b600061178c6027836113de565b915061179782611730565b604082019050919050565b600060208201905081810360008301526117bb8161177f565b9050919050565b7f546865206368616c6c656e6765206973207374696c6c206f70656e2100000000600082015250565b60006117f8601c836113de565b9150611803826117c2565b602082019050919050565b60006020820190508181036000830152611827816117eb565b9050919050565b7f5468652077696e6e65722068617320616c7265616479206265656e207061696460008201527f2100000000000000000000000000000000000000000000000000000000000000602082015250565b600061188a6021836113de565b91506118958261182e565b604082019050919050565b600060208201905081810360008301526118b98161187d565b9050919050565b7f546f6b656e207370656e64696e67206e6f7420616c6c6f776564000000000000600082015250565b60006118f6601a836113de565b9150611901826118c0565b602082019050919050565b60006020820190508181036000830152611925816118e9565b9050919050565b7f4e487b7100000000000000000000000000000000000000000000000000000000600052601160045260246000fd5b600061196682611049565b915061197183611049565b9250828210156119845761198361192c565b5b82820390509291505056fea264697066735822122038a8fd90e019818bb3705a5b19aaf843307dba91b4389d75900e21ed76330b7264736f6c634300080b0033",
  "linkReferences": {},
  "deployedLinkReferences": {}
}