{
  "_format": "hh-sol-artifact-1",
  "contractName": "MindJam",
  "sourceName": "contracts/MindJam.sol",
  "abi": [
    {
      "inputs": [],
      "stateMutability": "nonpayable",
      "type": "constructor"
    },
    {
      "anonymous": false,
      "inputs": [
        {
          "indexed": true,
          "internalType": "address",
          "name": "owner",
          "type": "address"
        },
        {
          "indexed": true,
          "internalType": "address",
          "name": "spender",
          "type": "address"
        },
        {
          "indexed": false,
          "internalType": "uint256",
          "name": "value",
          "type": "uint256"
        }
      ],
      "name": "Approval",
      "type": "event"
    },
    {
      "anonymous": false,
      "inputs": [
        {
          "indexed": true,
          "internalType": "address",
          "name": "previousOwner",
          "type": "address"
        },
        {
          "indexed": true,
          "internalType": "address",
          "name": "newOwner",
          "type": "address"
        }
      ],
      "name": "OwnershipTransferred",
      "type": "event"
    },
    {
      "anonymous": false,
      "inputs": [
        {
          "indexed": false,
          "internalType": "address",
          "name": "account",
          "type": "address"
        }
      ],
      "name": "Paused",
      "type": "event"
    },
    {
      "anonymous": false,
      "inputs": [
        {
          "indexed": true,
          "internalType": "address",
          "name": "from",
          "type": "address"
        },
        {
          "indexed": true,
          "internalType": "address",
          "name": "to",
          "type": "address"
        },
        {
          "indexed": false,
          "internalType": "uint256",
          "name": "value",
          "type": "uint256"
        }
      ],
      "name": "Transfer",
      "type": "event"
    },
    {
      "anonymous": false,
      "inputs": [
        {
          "indexed": false,
          "internalType": "address",
          "name": "account",
          "type": "address"
        }
      ],
      "name": "Unpaused",
      "type": "event"
    },
    {
      "inputs": [
        {
          "internalType": "address",
          "name": "_toWhitelist",
          "type": "address"
        }
      ],
      "name": "addToWhitelist",
      "outputs": [],
      "stateMutability": "nonpayable",
      "type": "function"
    },
    {
      "inputs": [
        {
          "internalType": "address",
          "name": "owner",
          "type": "address"
        },
        {
          "internalType": "address",
          "name": "spender",
          "type": "address"
        }
      ],
      "name": "allowance",
      "outputs": [
        {
          "internalType": "uint256",
          "name": "",
          "type": "uint256"
        }
      ],
      "stateMutability": "view",
      "type": "function"
    },
    {
      "inputs": [
        {
          "internalType": "address",
          "name": "spender",
          "type": "address"
        },
        {
          "internalType": "uint256",
          "name": "amount",
          "type": "uint256"
        }
      ],
      "name": "approve",
      "outputs": [
        {
          "internalType": "bool",
          "name": "",
          "type": "bool"
        }
      ],
      "stateMutability": "nonpayable",
      "type": "function"
    },
    {
      "inputs": [
        {
          "internalType": "address",
          "name": "account",
          "type": "address"
        }
      ],
      "name": "balanceOf",
      "outputs": [
        {
          "internalType": "uint256",
          "name": "",
          "type": "uint256"
        }
      ],
      "stateMutability": "view",
      "type": "function"
    },
    {
      "inputs": [],
      "name": "decimals",
      "outputs": [
        {
          "internalType": "uint8",
          "name": "",
          "type": "uint8"
        }
      ],
      "stateMutability": "view",
      "type": "function"
    },
    {
      "inputs": [
        {
          "internalType": "address",
          "name": "spender",
          "type": "address"
        },
        {
          "internalType": "uint256",
          "name": "subtractedValue",
          "type": "uint256"
        }
      ],
      "name": "decreaseAllowance",
      "outputs": [
        {
          "internalType": "bool",
          "name": "",
          "type": "bool"
        }
      ],
      "stateMutability": "nonpayable",
      "type": "function"
    },
    {
      "inputs": [
        {
          "internalType": "address",
          "name": "spender",
          "type": "address"
        },
        {
          "internalType": "uint256",
          "name": "addedValue",
          "type": "uint256"
        }
      ],
      "name": "increaseAllowance",
      "outputs": [
        {
          "internalType": "bool",
          "name": "",
          "type": "bool"
        }
      ],
      "stateMutability": "nonpayable",
      "type": "function"
    },
    {
      "inputs": [
        {
          "internalType": "address",
          "name": "to",
          "type": "address"
        },
        {
          "internalType": "uint256",
          "name": "amount",
          "type": "uint256"
        }
      ],
      "name": "mint",
      "outputs": [],
      "stateMutability": "nonpayable",
      "type": "function"
    },
    {
      "inputs": [],
      "name": "name",
      "outputs": [
        {
          "internalType": "string",
          "name": "",
          "type": "string"
        }
      ],
      "stateMutability": "view",
      "type": "function"
    },
    {
      "inputs": [],
      "name": "owner",
      "outputs": [
        {
          "internalType": "address",
          "name": "",
          "type": "address"
        }
      ],
      "stateMutability": "view",
      "type": "function"
    },
    {
      "inputs": [],
      "name": "pause",
      "outputs": [],
      "stateMutability": "nonpayable",
      "type": "function"
    },
    {
      "inputs": [],
      "name": "paused",
      "outputs": [
        {
          "internalType": "bool",
          "name": "",
          "type": "bool"
        }
      ],
      "stateMutability": "view",
      "type": "function"
    },
    {
      "inputs": [
        {
          "internalType": "address",
          "name": "winner",
          "type": "address"
        },
        {
          "internalType": "uint256",
          "name": "amount",
          "type": "uint256"
        }
      ],
      "name": "payWinner",
      "outputs": [],
      "stateMutability": "payable",
      "type": "function"
    },
    {
      "inputs": [],
      "name": "renounceOwnership",
      "outputs": [],
      "stateMutability": "nonpayable",
      "type": "function"
    },
    {
      "inputs": [],
      "name": "symbol",
      "outputs": [
        {
          "internalType": "string",
          "name": "",
          "type": "string"
        }
      ],
      "stateMutability": "view",
      "type": "function"
    },
    {
      "inputs": [],
      "name": "totalSupply",
      "outputs": [
        {
          "internalType": "uint256",
          "name": "",
          "type": "uint256"
        }
      ],
      "stateMutability": "view",
      "type": "function"
    },
    {
      "inputs": [
        {
          "internalType": "address",
          "name": "to",
          "type": "address"
        },
        {
          "internalType": "uint256",
          "name": "amount",
          "type": "uint256"
        }
      ],
      "name": "transfer",
      "outputs": [
        {
          "internalType": "bool",
          "name": "",
          "type": "bool"
        }
      ],
      "stateMutability": "nonpayable",
      "type": "function"
    },
    {
      "inputs": [
        {
          "internalType": "address",
          "name": "from",
          "type": "address"
        },
        {
          "internalType": "address",
          "name": "to",
          "type": "address"
        },
        {
          "internalType": "uint256",
          "name": "amount",
          "type": "uint256"
        }
      ],
      "name": "transferFrom",
      "outputs": [
        {
          "internalType": "bool",
          "name": "",
          "type": "bool"
        }
      ],
      "stateMutability": "nonpayable",
      "type": "function"
    },
    {
      "inputs": [
        {
          "internalType": "address",
          "name": "newOwner",
          "type": "address"
        }
      ],
      "name": "transferOwnership",
      "outputs": [],
      "stateMutability": "nonpayable",
      "type": "function"
    },
    {
      "inputs": [],
      "name": "unpause",
      "outputs": [],
      "stateMutability": "nonpayable",
      "type": "function"
    }
  ],
  "bytecode": "0x60806040523480156200001157600080fd5b506040518060400160405280600781526020017f4d696e644a616d000000000000000000000000000000000000000000000000008152506040518060400160405280600781526020017f4d494e444a414d0000000000000000000000000000000000000000000000000081525081600390805190602001906200009692919062000413565b508060049080519060200190620000af92919062000413565b5050506000600560006101000a81548160ff021916908315150217905550620000ed620000e16200013260201b60201c565b6200013a60201b60201c565b6200012c33620001026200020060201b60201c565b600a6200011091906200065d565b62989680620001209190620006ae565b6200020960201b60201c565b620008f4565b600033905090565b6000600560019054906101000a900473ffffffffffffffffffffffffffffffffffffffff16905081600560016101000a81548173ffffffffffffffffffffffffffffffffffffffff021916908373ffffffffffffffffffffffffffffffffffffffff1602179055508173ffffffffffffffffffffffffffffffffffffffff168173ffffffffffffffffffffffffffffffffffffffff167f8be0079c531659141344cd1fd0a4f28419497f9722a3daafe3b4186f6b6457e060405160405180910390a35050565b60006012905090565b600073ffffffffffffffffffffffffffffffffffffffff168273ffffffffffffffffffffffffffffffffffffffff1614156200027c576040517f08c379a0000000000000000000000000000000000000000000000000000000008152600401620002739062000770565b60405180910390fd5b62000290600083836200038260201b60201c565b8060026000828254620002a4919062000792565b92505081905550806000808473ffffffffffffffffffffffffffffffffffffffff1673ffffffffffffffffffffffffffffffffffffffff1681526020019081526020016000206000828254620002fb919062000792565b925050819055508173ffffffffffffffffffffffffffffffffffffffff16600073ffffffffffffffffffffffffffffffffffffffff167fddf252ad1be2c89b69c2b068fc378daa952ba7f163c4a11628f55a4df523b3ef8360405162000362919062000800565b60405180910390a36200037e60008383620003f260201b60201c565b5050565b62000392620003f760201b60201c565b15620003d5576040517f08c379a0000000000000000000000000000000000000000000000000000000008152600401620003cc906200086d565b60405180910390fd5b620003ed8383836200040e60201b62000dbf1760201c565b505050565b505050565b6000600560009054906101000a900460ff16905090565b505050565b8280546200042190620008be565b90600052602060002090601f01602090048101928262000445576000855562000491565b82601f106200046057805160ff191683800117855562000491565b8280016001018555821562000491579182015b828111156200049057825182559160200191906001019062000473565b5b509050620004a09190620004a4565b5090565b5b80821115620004bf576000816000905550600101620004a5565b5090565b7f4e487b7100000000000000000000000000000000000000000000000000000000600052601160045260246000fd5b60008160011c9050919050565b6000808291508390505b60018511156200055157808604811115620005295762000528620004c3565b5b6001851615620005395780820291505b80810290506200054985620004f2565b945062000509565b94509492505050565b6000826200056c57600190506200063f565b816200057c57600090506200063f565b8160018114620005955760028114620005a057620005d6565b60019150506200063f565b60ff841115620005b557620005b4620004c3565b5b8360020a915084821115620005cf57620005ce620004c3565b5b506200063f565b5060208310610133831016604e8410600b8410161715620006105782820a9050838111156200060a5762000609620004c3565b5b6200063f565b6200061f8484846001620004ff565b92509050818404811115620006395762000638620004c3565b5b81810290505b9392505050565b6000819050919050565b600060ff82169050919050565b60006200066a8262000646565b9150620006778362000650565b9250620006a67fffffffffffffffffffffffffffffffffffffffffffffffffffffffffffffffff84846200055a565b905092915050565b6000620006bb8262000646565b9150620006c88362000646565b9250817fffffffffffffffffffffffffffffffffffffffffffffffffffffffffffffffff0483118215151615620007045762000703620004c3565b5b828202905092915050565b600082825260208201905092915050565b7f45524332303a206d696e7420746f20746865207a65726f206164647265737300600082015250565b600062000758601f836200070f565b9150620007658262000720565b602082019050919050565b600060208201905081810360008301526200078b8162000749565b9050919050565b60006200079f8262000646565b9150620007ac8362000646565b9250827fffffffffffffffffffffffffffffffffffffffffffffffffffffffffffffffff03821115620007e457620007e3620004c3565b5b828201905092915050565b620007fa8162000646565b82525050565b6000602082019050620008176000830184620007ef565b92915050565b7f5061757361626c653a2070617573656400000000000000000000000000000000600082015250565b6000620008556010836200070f565b915062000862826200081d565b602082019050919050565b60006020820190508181036000830152620008888162000846565b9050919050565b7f4e487b7100000000000000000000000000000000000000000000000000000000600052602260045260246000fd5b60006002820490506001821680620008d757607f821691505b60208210811415620008ee57620008ed6200088f565b5b50919050565b6122fb80620009046000396000f3fe60806040526004361061011f5760003560e01c806370a08231116100a0578063a457c2d711610064578063a457c2d7146103a4578063a9059cbb146103e1578063dd62ed3e1461041e578063e43252d71461045b578063f2fde38b146104845761011f565b806370a08231146102e3578063715018a6146103205780638456cb59146103375780638da5cb5b1461034e57806395d89b41146103795761011f565b806339509351116100e7578063395093511461021f5780633f4ba83a1461025c57806340c10f19146102735780634e958d051461029c5780635c975abb146102b85761011f565b806306fdde0314610124578063095ea7b31461014f57806318160ddd1461018c57806323b872dd146101b7578063313ce567146101f4575b600080fd5b34801561013057600080fd5b506101396104ad565b6040516101469190611705565b60405180910390f35b34801561015b57600080fd5b50610176600480360381019061017191906117c0565b61053f565b604051610183919061181b565b60405180910390f35b34801561019857600080fd5b506101a1610562565b6040516101ae9190611845565b60405180910390f35b3480156101c357600080fd5b506101de60048036038101906101d99190611860565b61056c565b6040516101eb919061181b565b60405180910390f35b34801561020057600080fd5b5061020961059b565b60405161021691906118cf565b60405180910390f35b34801561022b57600080fd5b50610246600480360381019061024191906117c0565b6105a4565b604051610253919061181b565b60405180910390f35b34801561026857600080fd5b5061027161064e565b005b34801561027f57600080fd5b5061029a600480360381019061029591906117c0565b6106d4565b005b6102b660048036038101906102b191906117c0565b61075e565b005b3480156102c457600080fd5b506102cd610833565b6040516102da919061181b565b60405180910390f35b3480156102ef57600080fd5b5061030a600480360381019061030591906118ea565b61084a565b6040516103179190611845565b60405180910390f35b34801561032c57600080fd5b50610335610892565b005b34801561034357600080fd5b5061034c61091a565b005b34801561035a57600080fd5b506103636109a0565b6040516103709190611926565b60405180910390f35b34801561038557600080fd5b5061038e6109ca565b60405161039b9190611705565b60405180910390f35b3480156103b057600080fd5b506103cb60048036038101906103c691906117c0565b610a5c565b6040516103d8919061181b565b60405180910390f35b3480156103ed57600080fd5b50610408600480360381019061040391906117c0565b610b46565b604051610415919061181b565b60405180910390f35b34801561042a57600080fd5b5061044560048036038101906104409190611941565b610b69565b6040516104529190611845565b60405180910390f35b34801561046757600080fd5b50610482600480360381019061047d91906118ea565b610bf0565b005b34801561049057600080fd5b506104ab60048036038101906104a691906118ea565b610cc7565b005b6060600380546104bc906119b0565b80601f01602080910402602001604051908101604052809291908181526020018280546104e8906119b0565b80156105355780601f1061050a57610100808354040283529160200191610535565b820191906000526020600020905b81548152906001019060200180831161051857829003601f168201915b5050505050905090565b60008061054a610dc4565b9050610557818585610dcc565b600191505092915050565b6000600254905090565b600080610577610dc4565b9050610584858285610f97565b61058f858585611023565b60019150509392505050565b60006012905090565b6000806105af610dc4565b9050610643818585600160008673ffffffffffffffffffffffffffffffffffffffff1673ffffffffffffffffffffffffffffffffffffffff16815260200190815260200160002060008973ffffffffffffffffffffffffffffffffffffffff1673ffffffffffffffffffffffffffffffffffffffff1681526020019081526020016000205461063e9190611a11565b610dcc565b600191505092915050565b610656610dc4565b73ffffffffffffffffffffffffffffffffffffffff166106746109a0565b73ffffffffffffffffffffffffffffffffffffffff16146106ca576040517f08c379a00000000000000000000000000000000000000000000000000000000081526004016106c190611ab3565b60405180910390fd5b6106d26112a4565b565b6106dc610dc4565b73ffffffffffffffffffffffffffffffffffffffff166106fa6109a0565b73ffffffffffffffffffffffffffffffffffffffff1614610750576040517f08c379a000000000000000000000000000000000000000000000000000000000815260040161074790611ab3565b60405180910390fd5b61075a8282611346565b5050565b600660003373ffffffffffffffffffffffffffffffffffffffff1673ffffffffffffffffffffffffffffffffffffffff16815260200190815260200160002060009054906101000a900460ff166107b457600080fd5b6107c46107bf6109a0565b61084a565b811115610806576040517f08c379a00000000000000000000000000000000000000000000000000000000081526004016107fd90611b1f565b60405180910390fd5b61082e8261081261059b565b600a61081e9190611c72565b836108299190611cbd565b610b46565b505050565b6000600560009054906101000a900460ff16905090565b60008060008373ffffffffffffffffffffffffffffffffffffffff1673ffffffffffffffffffffffffffffffffffffffff168152602001908152602001600020549050919050565b61089a610dc4565b73ffffffffffffffffffffffffffffffffffffffff166108b86109a0565b73ffffffffffffffffffffffffffffffffffffffff161461090e576040517f08c379a000000000000000000000000000000000000000000000000000000000815260040161090590611ab3565b60405180910390fd5b61091860006114a6565b565b610922610dc4565b73ffffffffffffffffffffffffffffffffffffffff166109406109a0565b73ffffffffffffffffffffffffffffffffffffffff1614610996576040517f08c379a000000000000000000000000000000000000000000000000000000000815260040161098d90611ab3565b60405180910390fd5b61099e61156c565b565b6000600560019054906101000a900473ffffffffffffffffffffffffffffffffffffffff16905090565b6060600480546109d9906119b0565b80601f0160208091040260200160405190810160405280929190818152602001828054610a05906119b0565b8015610a525780601f10610a2757610100808354040283529160200191610a52565b820191906000526020600020905b815481529060010190602001808311610a3557829003601f168201915b5050505050905090565b600080610a67610dc4565b90506000600160008373ffffffffffffffffffffffffffffffffffffffff1673ffffffffffffffffffffffffffffffffffffffff16815260200190815260200160002060008673ffffffffffffffffffffffffffffffffffffffff1673ffffffffffffffffffffffffffffffffffffffff16815260200190815260200160002054905083811015610b2d576040517f08c379a0000000000000000000000000000000000000000000000000000000008152600401610b2490611d89565b60405180910390fd5b610b3a8286868403610dcc565b60019250505092915050565b600080610b51610dc4565b9050610b5e818585611023565b600191505092915050565b6000600160008473ffffffffffffffffffffffffffffffffffffffff1673ffffffffffffffffffffffffffffffffffffffff16815260200190815260200160002060008373ffffffffffffffffffffffffffffffffffffffff1673ffffffffffffffffffffffffffffffffffffffff16815260200190815260200160002054905092915050565b610bf8610dc4565b73ffffffffffffffffffffffffffffffffffffffff16610c166109a0565b73ffffffffffffffffffffffffffffffffffffffff1614610c6c576040517f08c379a0000000000000000000000000000000000000000000000000000000008152600401610c6390611ab3565b60405180910390fd5b6001600660008373ffffffffffffffffffffffffffffffffffffffff1673ffffffffffffffffffffffffffffffffffffffff16815260200190815260200160002060006101000a81548160ff02191690831515021790555050565b610ccf610dc4565b73ffffffffffffffffffffffffffffffffffffffff16610ced6109a0565b73ffffffffffffffffffffffffffffffffffffffff1614610d43576040517f08c379a0000000000000000000000000000000000000000000000000000000008152600401610d3a90611ab3565b60405180910390fd5b600073ffffffffffffffffffffffffffffffffffffffff168173ffffffffffffffffffffffffffffffffffffffff161415610db3576040517f08c379a0000000000000000000000000000000000000000000000000000000008152600401610daa90611e1b565b60405180910390fd5b610dbc816114a6565b50565b505050565b600033905090565b600073ffffffffffffffffffffffffffffffffffffffff168373ffffffffffffffffffffffffffffffffffffffff161415610e3c576040517f08c379a0000000000000000000000000000000000000000000000000000000008152600401610e3390611ead565b60405180910390fd5b600073ffffffffffffffffffffffffffffffffffffffff168273ffffffffffffffffffffffffffffffffffffffff161415610eac576040517f08c379a0000000000000000000000000000000000000000000000000000000008152600401610ea390611f3f565b60405180910390fd5b80600160008573ffffffffffffffffffffffffffffffffffffffff1673ffffffffffffffffffffffffffffffffffffffff16815260200190815260200160002060008473ffffffffffffffffffffffffffffffffffffffff1673ffffffffffffffffffffffffffffffffffffffff168152602001908152602001600020819055508173ffffffffffffffffffffffffffffffffffffffff168373ffffffffffffffffffffffffffffffffffffffff167f8c5be1e5ebec7d5bd14f71427d1e84f3dd0314c0f7b2291e5b200ac8c7c3b92583604051610f8a9190611845565b60405180910390a3505050565b6000610fa38484610b69565b90507fffffffffffffffffffffffffffffffffffffffffffffffffffffffffffffffff811461101d578181101561100f576040517f08c379a000000000000000000000000000000000000000000000000000000000815260040161100690611fab565b60405180910390fd5b61101c8484848403610dcc565b5b50505050565b600073ffffffffffffffffffffffffffffffffffffffff168373ffffffffffffffffffffffffffffffffffffffff161415611093576040517f08c379a000000000000000000000000000000000000000000000000000000000815260040161108a9061203d565b60405180910390fd5b600073ffffffffffffffffffffffffffffffffffffffff168273ffffffffffffffffffffffffffffffffffffffff161415611103576040517f08c379a00000000000000000000000000000000000000000000000000000000081526004016110fa906120cf565b60405180910390fd5b61110e83838361160f565b60008060008573ffffffffffffffffffffffffffffffffffffffff1673ffffffffffffffffffffffffffffffffffffffff16815260200190815260200160002054905081811015611194576040517f08c379a000000000000000000000000000000000000000000000000000000000815260040161118b90612161565b60405180910390fd5b8181036000808673ffffffffffffffffffffffffffffffffffffffff1673ffffffffffffffffffffffffffffffffffffffff16815260200190815260200160002081905550816000808573ffffffffffffffffffffffffffffffffffffffff1673ffffffffffffffffffffffffffffffffffffffff16815260200190815260200160002060008282546112279190611a11565b925050819055508273ffffffffffffffffffffffffffffffffffffffff168473ffffffffffffffffffffffffffffffffffffffff167fddf252ad1be2c89b69c2b068fc378daa952ba7f163c4a11628f55a4df523b3ef8460405161128b9190611845565b60405180910390a361129e848484611667565b50505050565b6112ac610833565b6112eb576040517f08c379a00000000000000000000000000000000000000000000000000000000081526004016112e2906121cd565b60405180910390fd5b6000600560006101000a81548160ff0219169083151502179055507f5db9ee0a495bf2e6ff9c91a7834c1ba4fdd244a5e8aa4e537bd38aeae4b073aa61132f610dc4565b60405161133c9190611926565b60405180910390a1565b600073ffffffffffffffffffffffffffffffffffffffff168273ffffffffffffffffffffffffffffffffffffffff1614156113b6576040517f08c379a00000000000000000000000000000000000000000000000000000000081526004016113ad90612239565b60405180910390fd5b6113c26000838361160f565b80600260008282546113d49190611a11565b92505081905550806000808473ffffffffffffffffffffffffffffffffffffffff1673ffffffffffffffffffffffffffffffffffffffff16815260200190815260200160002060008282546114299190611a11565b925050819055508173ffffffffffffffffffffffffffffffffffffffff16600073ffffffffffffffffffffffffffffffffffffffff167fddf252ad1be2c89b69c2b068fc378daa952ba7f163c4a11628f55a4df523b3ef8360405161148e9190611845565b60405180910390a36114a260008383611667565b5050565b6000600560019054906101000a900473ffffffffffffffffffffffffffffffffffffffff16905081600560016101000a81548173ffffffffffffffffffffffffffffffffffffffff021916908373ffffffffffffffffffffffffffffffffffffffff1602179055508173ffffffffffffffffffffffffffffffffffffffff168173ffffffffffffffffffffffffffffffffffffffff167f8be0079c531659141344cd1fd0a4f28419497f9722a3daafe3b4186f6b6457e060405160405180910390a35050565b611574610833565b156115b4576040517f08c379a00000000000000000000000000000000000000000000000000000000081526004016115ab906122a5565b60405180910390fd5b6001600560006101000a81548160ff0219169083151502179055507f62e78cea01bee320cd4e420270b5ea74000d11b0c9f74754ebdbfc544b05a2586115f8610dc4565b6040516116059190611926565b60405180910390a1565b611617610833565b15611657576040517f08c379a000000000000000000000000000000000000000000000000000000000815260040161164e906122a5565b60405180910390fd5b611662838383610dbf565b505050565b505050565b600081519050919050565b600082825260208201905092915050565b60005b838110156116a657808201518184015260208101905061168b565b838111156116b5576000848401525b50505050565b6000601f19601f8301169050919050565b60006116d78261166c565b6116e18185611677565b93506116f1818560208601611688565b6116fa816116bb565b840191505092915050565b6000602082019050818103600083015261171f81846116cc565b905092915050565b600080fd5b600073ffffffffffffffffffffffffffffffffffffffff82169050919050565b60006117578261172c565b9050919050565b6117678161174c565b811461177257600080fd5b50565b6000813590506117848161175e565b92915050565b6000819050919050565b61179d8161178a565b81146117a857600080fd5b50565b6000813590506117ba81611794565b92915050565b600080604083850312156117d7576117d6611727565b5b60006117e585828601611775565b92505060206117f6858286016117ab565b9150509250929050565b60008115159050919050565b61181581611800565b82525050565b6000602082019050611830600083018461180c565b92915050565b61183f8161178a565b82525050565b600060208201905061185a6000830184611836565b92915050565b60008060006060848603121561187957611878611727565b5b600061188786828701611775565b935050602061189886828701611775565b92505060406118a9868287016117ab565b9150509250925092565b600060ff82169050919050565b6118c9816118b3565b82525050565b60006020820190506118e460008301846118c0565b92915050565b600060208284031215611900576118ff611727565b5b600061190e84828501611775565b91505092915050565b6119208161174c565b82525050565b600060208201905061193b6000830184611917565b92915050565b6000806040838503121561195857611957611727565b5b600061196685828601611775565b925050602061197785828601611775565b9150509250929050565b7f4e487b7100000000000000000000000000000000000000000000000000000000600052602260045260246000fd5b600060028204905060018216806119c857607f821691505b602082108114156119dc576119db611981565b5b50919050565b7f4e487b7100000000000000000000000000000000000000000000000000000000600052601160045260246000fd5b6000611a1c8261178a565b9150611a278361178a565b9250827fffffffffffffffffffffffffffffffffffffffffffffffffffffffffffffffff03821115611a5c57611a5b6119e2565b5b828201905092915050565b7f4f776e61626c653a2063616c6c6572206973206e6f7420746865206f776e6572600082015250565b6000611a9d602083611677565b9150611aa882611a67565b602082019050919050565b60006020820190508181036000830152611acc81611a90565b9050919050565b7f416d6f756e7420657863656564732062616c616e636500000000000000000000600082015250565b6000611b09601683611677565b9150611b1482611ad3565b602082019050919050565b60006020820190508181036000830152611b3881611afc565b9050919050565b60008160011c9050919050565b6000808291508390505b6001851115611b9657808604811115611b7257611b716119e2565b5b6001851615611b815780820291505b8081029050611b8f85611b3f565b9450611b56565b94509492505050565b600082611baf5760019050611c6b565b81611bbd5760009050611c6b565b8160018114611bd35760028114611bdd57611c0c565b6001915050611c6b565b60ff841115611bef57611bee6119e2565b5b8360020a915084821115611c0657611c056119e2565b5b50611c6b565b5060208310610133831016604e8410600b8410161715611c415782820a905083811115611c3c57611c3b6119e2565b5b611c6b565b611c4e8484846001611b4c565b92509050818404811115611c6557611c646119e2565b5b81810290505b9392505050565b6000611c7d8261178a565b9150611c88836118b3565b9250611cb57fffffffffffffffffffffffffffffffffffffffffffffffffffffffffffffffff8484611b9f565b905092915050565b6000611cc88261178a565b9150611cd38361178a565b9250817fffffffffffffffffffffffffffffffffffffffffffffffffffffffffffffffff0483118215151615611d0c57611d0b6119e2565b5b828202905092915050565b7f45524332303a2064656372656173656420616c6c6f77616e63652062656c6f7760008201527f207a65726f000000000000000000000000000000000000000000000000000000602082015250565b6000611d73602583611677565b9150611d7e82611d17565b604082019050919050565b60006020820190508181036000830152611da281611d66565b9050919050565b7f4f776e61626c653a206e6577206f776e657220697320746865207a65726f206160008201527f6464726573730000000000000000000000000000000000000000000000000000602082015250565b6000611e05602683611677565b9150611e1082611da9565b604082019050919050565b60006020820190508181036000830152611e3481611df8565b9050919050565b7f45524332303a20617070726f76652066726f6d20746865207a65726f2061646460008201527f7265737300000000000000000000000000000000000000000000000000000000602082015250565b6000611e97602483611677565b9150611ea282611e3b565b604082019050919050565b60006020820190508181036000830152611ec681611e8a565b9050919050565b7f45524332303a20617070726f766520746f20746865207a65726f20616464726560008201527f7373000000000000000000000000000000000000000000000000000000000000602082015250565b6000611f29602283611677565b9150611f3482611ecd565b604082019050919050565b60006020820190508181036000830152611f5881611f1c565b9050919050565b7f45524332303a20696e73756666696369656e7420616c6c6f77616e6365000000600082015250565b6000611f95601d83611677565b9150611fa082611f5f565b602082019050919050565b60006020820190508181036000830152611fc481611f88565b9050919050565b7f45524332303a207472616e736665722066726f6d20746865207a65726f20616460008201527f6472657373000000000000000000000000000000000000000000000000000000602082015250565b6000612027602583611677565b915061203282611fcb565b604082019050919050565b600060208201905081810360008301526120568161201a565b9050919050565b7f45524332303a207472616e7366657220746f20746865207a65726f206164647260008201527f6573730000000000000000000000000000000000000000000000000000000000602082015250565b60006120b9602383611677565b91506120c48261205d565b604082019050919050565b600060208201905081810360008301526120e8816120ac565b9050919050565b7f45524332303a207472616e7366657220616d6f756e742065786365656473206260008201527f616c616e63650000000000000000000000000000000000000000000000000000602082015250565b600061214b602683611677565b9150612156826120ef565b604082019050919050565b6000602082019050818103600083015261217a8161213e565b9050919050565b7f5061757361626c653a206e6f7420706175736564000000000000000000000000600082015250565b60006121b7601483611677565b91506121c282612181565b602082019050919050565b600060208201905081810360008301526121e6816121aa565b9050919050565b7f45524332303a206d696e7420746f20746865207a65726f206164647265737300600082015250565b6000612223601f83611677565b915061222e826121ed565b602082019050919050565b6000602082019050818103600083015261225281612216565b9050919050565b7f5061757361626c653a2070617573656400000000000000000000000000000000600082015250565b600061228f601083611677565b915061229a82612259565b602082019050919050565b600060208201905081810360008301526122be81612282565b905091905056fea2646970667358221220fc0e3e8874824c2a5d95879af11b488f18966722eb0f60069544d123af7acdbd64736f6c634300080b0033",
  "linkReferences": {},
  "deployedLinkReferences": {}
}